:020000040800F2
:1000000000500020011C0008BD1A0008C31A000897
:10001000C91A0008CF1A0008D51A0008000000000D
:10002000000000000000000000000000DB1A0008D3
:10003000E71A000800000000F31A0008011B00087E
:10004000491C0008491C0008491C0008491C0008FC
:10005000491C0008491C0008491C0008491C0008EC
:10006000491C0008491C0008491C0008491C0008DC
:10007000491C0008491C0008491C0008491C0008CC
:10008000491C0008491C0008491C0008491C0008BC
:10009000491C0008491C0008491C0008491C0008AC
:1000A000491C0008391B0008491C0008491C0008AD
:1000B0004D1B0008611B0008491C0008491C000872
:1000C000491C0008491C0008491C0008491C00087C
:1000D000491C0008751B0008491C0008491C000841
:1000E000491C0008491C0008491C000800000000C9
:1000F0000000000000000000000000000000000000
:0C01000000000000000000005FF808F1A3
:1001100010B5054C237833B9044B13B10448AFF341
:1001200000800123237010BD5C000020000000004F
:10013000F451000808B5034B1BB103490348AFF362
:10014000008008BD0000000060000020F45100089D
:10015000034613F8012B002AFBD1181A0138704707
:1001600070B54FF0FF0C4CF4E06C1CEA11541DBF4D
:100170001CEA135594EA0C0F95EA0C0F00F0DEF818
:100180002C4481EA030621EA4C5123EA4C5350EAFD
:10019000013518BF52EA033541F4801143F480134E
:1001A00038D0A0FB02CE4FF00005E1FB02E506F0DF
:1001B0000042E0FB03E54FF00006E1FB03569CF034
:1001C000000F18BF4EF0010EA4F1FF04B6F5007F3A
:1001D00064F5407404D25FEA4E0E6D4146EB0606AC
:1001E00042EAC62141EA55514FEAC52040EA5E5035
:1001F0004FEACE2EB4F1FD0C88BFBCF5E06F1ED8DF
:10020000BEF1004F08BF5FEA500E50F1000041EB15
:10021000045170BD06F0004646EA010140EA0200C2
:1002200081EA0301B4EB5C04C2BFD4EB0C0541EAE4
:10023000045170BD41F480114FF0000E013C00F3F9
:10024000AB8014F1360FDEBF002001F0004170BD1D
:10025000C4F10004203C35DA0C341BDC04F1140436
:10026000C4F1200500FA05F320FA04F001FA05F2C2
:1002700040EA020001F0004221F0004110EBD3708F
:1002800021FA04F642EB06015EEA430E08BF20EABB
:10029000D37070BDC4F10C04C4F1200500FA04F35E
:1002A00020FA05F001FA04F240EA020001F00041F0
:1002B00010EBD37041F100015EEA430E08BF20EA63
:1002C000D37070BDC4F1200500FA05F24EEA020EAB
:1002D00020FA04F301FA05F243EA020321FA04F0DA
:1002E00001F0004121FA04F220EA020000EBD37091
:1002F0005EEA430E08BF20EAD37070BD94F0000F91
:100300000FD101F00046400041EB010111F4801FC4
:1003100008BF013CF7D041EA060195F0000F18BF75
:10032000704703F00046520043EB030313F4801FB1
:1003300008BF013DF7D043EA0603704794EA0C0F6B
:100340000CEA135518BF95EA0C0F0CD050EA410681
:1003500018BF52EA4306D1D181EA030101F00041FE
:100360004FF0000070BD50EA410606BF1046194626
:1003700052EA430619D094EA0C0F02D150EA013632
:1003800013D195EA0C0F05D152EA03361CBF104673
:1003900019460AD181EA030101F0004141F0FE4112
:1003A00041F470014FF0000070BD41F0FE4141F496
:1003B000780170BD81F0004102E000BF83F000438E
:1003C00030B54FEA41044FEA430594EA050F08BFF0
:1003D00090EA020F1FBF54EA000C55EA020C7FEAB4
:1003E000645C7FEA655C00F0E2804FEA5454D4EB31
:1003F0005555B8BF6D420CDD2C4480EA020281EAFB
:10040000030382EA000083EA010180EA020281EA32
:100410000303362D88BF30BD11F0004F4FEA013184
:100420004FF4801C4CEA113102D0404261EB410193
:1004300013F0004F4FEA03334CEA133302D0524219
:1004400063EB430394EA050F00F0A780A4F10104D5
:10045000D5F1200E0DDB02FA0EFC22FA05F280180F
:1004600041F1000103FA0EF2801843FA05F35941F5
:100470000EE0A5F120050EF1200E012A03FA0EFC74
:1004800028BF4CF0020C43FA05F3C01851EBE3719E
:1004900001F0004507D54FF0000EDCF1000C7EEBBB
:1004A00000006EEB0101B1F5801F1BD3B1F5001FF9
:1004B0000CD349085FEA30004FEA3C0C04F1010418
:1004C0004FEA445212F5800F80F09A80BCF1004F41
:1004D00008BF5FEA500C50F1000041EB045141EAC3
:1004E000050130BD5FEA4C0C404141EB0101013C8C
:1004F00028BFB1F5801FE9D291F0000F04BF01467B
:100500000020B1FA81F308BF2033A3F10B03B3F14C
:1005100020020CDA0C3208DD02F1140CC2F10C02DC
:1005200001FA0CF021FA02F10CE002F11402D8BF3A
:10053000C2F1200C01FA02F120FA0CFCDCBF41EA06
:100540000C019040E41AA2BF01EB0451294330BDD5
:100550006FEA04041F3C1CDA0C340EDC04F11404B2
:10056000C4F1200220FA04F001FA02F340EA030089
:1005700021FA04F345EA030130BDC4F10C04C4F1CF
:10058000200220FA02F001FA04F340EA03002946AF
:1005900030BD21FA04F0294630BD94F0000F83F4F9
:1005A000801306BF81F480110134013D4EE77FEADC
:1005B000645C18BF7FEA655C29D094EA050F08BF28
:1005C00090EA020F05D054EA000C04BF1946104609
:1005D00030BD91EA030F1EBF0021002030BD5FEA4D
:1005E000545C05D14000494128BF41F0004130BD75
:1005F00014F580043CBF01F5801130BD01F00045C9
:1006000045F0FE4141F470014FF0000030BD7FEA3B
:10061000645C1ABF194610467FEA655C1CBF0B4636
:10062000024650EA013406BF52EA033591EA030F4D
:1006300041F4002130BD00BF90F0000F04BF002145
:10064000704730B54FF4806404F132044FF0000578
:100650004FF0000150E700BF90F0000F04BF0021F1
:10066000704730B54FF4806404F1320410F0004557
:1006700048BF40424FF000013EE700BF42004FEA52
:10068000E2014FEA31014FEA02701FBF12F07F43CF
:1006900093F07F4F81F06051704732F07F4208BF86
:1006A000704793F07F4F04BF41F40021704730B58D
:1006B0004FF4607401F0004521F000411CE700BFD9
:1006C00050EA010208BF704730B54FF000050AE05C
:1006D00050EA010208BF704730B511F0004502D55D
:1006E000404261EB41014FF4806404F132045FEA5F
:1006F000915C3FF4D8AE4FF003025FEADC0C18BF08
:1007000003325FEADC0C18BF033202EBDC02C2F1F9
:10071000200300FA03FC20FA02F001FA03FE40EA8B
:100720000E0021FA02F11444BDE600BF4FEA410277
:1007300012F5001215D211D56FF47873B3EB625233
:1007400012D94FEAC12343F0004343EA505311F05A
:10075000004F23FA02F018BF404270474FF00000EC
:10076000704750EA013005D111F0004008BF6FF02A
:10077000004070474FF00000704700BF80F000401D
:1007800002E000BF81F0004142001FBF5FEA410369
:1007900092EA030F7FEA226C7FEA236C6AD04FEA69
:1007A0001262D2EB1363C1BFD218414048404140AE
:1007B000B8BF5B42192B88BF704710F0004F40F460
:1007C000000020F07F4018BF404211F0004F41F47C
:1007D000000121F07F4118BF494292EA030F3FD048
:1007E000A2F1010241FA03FC10EB0C00C3F120035B
:1007F00001FA03F100F0004302D5494260EB4000EA
:10080000B0F5000F13D3B0F1807F06D340084FEA54
:10081000310102F10102FE2A51D2B1F1004F40EB49
:10082000C25008BF20F0010040EA030070474900B1
:1008300040EB0000013A28BFB0F5000FEDD2B0FA4E
:1008400080FCACF1080CB2EB0C0200FA0CF0AABF71
:1008500000EBC25052421843BCBFD040184370470F
:1008600092F0000F81F4000106BF80F40000013215
:10087000013BB5E74FEA41037FEA226C18BF7FEAEC
:10088000236C21D092EA030F04D092F0000F08BF2E
:100890000846704790EA010F1CBF0020704712F015
:1008A0007F4F04D1400028BF40F00040704712F154
:1008B00000723CBF00F50000704700F0004343F0B9
:1008C000FE4040F4000070477FEA226216BF0846EF
:1008D0007FEA23630146420206BF5FEA412390EAB2
:1008E000010F40F4800070474FF0000304E000BFA8
:1008F00010F0004348BF40425FEA000C08BF704759
:1009000043F0964301464FF000001CE050EA01021C
:1009100008BF70474FF000030AE000BF50EA010231
:1009200008BF704711F0004302D5404261EB41011E
:100930005FEA010C02BF84460146002043F0B64343
:1009400008BFA3F18053A3F50003BCFA8CF2083A68
:10095000A3EBC25310DB01FA02FC634400FA02FC71
:10096000C2F12002BCF1004F20FA02F243EB020078
:1009700008BF20F00100704702F1200201FA02FCDA
:10098000C2F1200250EA4C0021FA02F243EB0200CD
:1009900008BF20EADC7070474FEA4002B2F1FE4F18
:1009A0000FD34FF09E03B3EB12620DD94FEA002331
:1009B00043F0004310F0004F23FA02F018BF40420A
:1009C00070474FF00000704712F1610F01D14202F1
:1009D00005D110F0004008BF6FF0004070474FF0A5
:1009E0000000704780B483B000AF78607B684FF040
:1009F00000021A607B6800225A607B6800229A60BD
:100A00007B680022DA617B6800221A617B68002221
:100A10005A617B6800229A617B680022DA607B68F9
:100A20001A221A847B6803225A847B6821229A84C2
:100A30007B680222DA8400BF0C37BD4680BC704759
:100A400080B483B000AF78607B684FF000021A601A
:100A50007B685A687B689A607B680022DA617B68F1
:100A600000221A617B6800225A617B6800229A6129
:100A70007B680022DA6000BF0C37BD4680BC70473F
:100A800090B585B000AF78607B681C687B685B6957
:100A90001846FFF72DFF034619462046FFF772FE62
:100AA00003461846FFF778FF0346FB607B681B8C04
:100AB0001A46FB6803FB02F27B689B691A447B6859
:100AC0009B8C18467B6819697B685B69CB1A00FBB5
:100AD00003F3D31A7A68D28C93FBF2F27B68DA6163
:100AE0007B68DB69B3F57A7F04DB7B684FF47A724D
:100AF000DA6113E07B68DB6913F57A7F03DC7B68DE
:100B0000084ADA610AE07B689A697B685B8C19465F
:100B1000FB6801FB03F31A447B689A6100BF14373A
:100B2000BD4690BD18FCFFFFB0B584B000AF786043
:100B30007B685A687B689B68D31AFB607B689B68FC
:100B4000B3F5404F09D97B685B68B3F5804F04D299
:100B5000FB6803F58033FB600DE07B689B68B3F5B1
:100B6000804F08D27B685B68B3F5404F03D9FB68C0
:100B7000A3F58033FB60F868FFF76EFD2AA3D3E985
:100B80000023FFF7EDFA02460B4614461D467B682C
:100B90001B691846FFF760FD25A3D3E90023FFF783
:100BA000DFFA02460B4620462946FFF709FC0246BB
:100BB0000B4614461D467B685B691846FFF74CFDE3
:100BC0001BA3D3E90023FFF7CBFA02460B462046CE
:100BD0002946FFF7F5FB02460B4610461946FFF77C
:100BE000A5FD0346FB607B685A687B689A607B685A
:100BF0001A697B685A617B68FA681A61FB684FF46E
:100C00007A7202FB03F30C4A82FB03121A4412119C
:100C1000DB17D31A1A467B68DA6000BF1037BD466F
:100C2000B0BD00BFAFF300808716D9CEF753EB3FBE
:100C3000C217265305A3B23F8988888880B582B041
:100C400000AF786039607868FFF76EFF3868FFF7AB
:100C50006BFF234B1B78002B1CD0224B1B780133DE
:100C6000DAB2204B1A701F4B1B780F2B12D10021C8
:100C7000002000F0C9FD7868FFF7E2FE3868FFF752
:100C8000DFFE194B00221A70164B00221A70144B0B
:100C900000221A70144B1B78002B0ED17B685B6905
:100CA000002B03D13B685B69002B15D07868FFF7F8
:100CB000C7FE3868FFF7C4FE0EE07868FFF7E0FE75
:100CC0003868FFF7DDFE7B68DA693B68DB69194647
:100CD000104600F099FD00E000BF0837BD4680BD1A
:100CE0000F02002078000020EC01002080B483B0C7
:100CF00000AF78607B680B4A934205D17B681B6824
:100D00005B6A094A536008E07B68084A934204D151
:100D10007B681B685B6A064A536000BF0C37BD46A0
:100D200080BC7047C40000209C0100200C01002002
:100D3000C401002080B582B000AF78607B681A687B
:100D40003E4B1B689A4275D13D4B1B780A2B07D04E
:100D50003B4B1B780D2B03D0394B1B782F2B1BD112
:100D6000384B1B78012B06D1374B1B781A46374B73
:100D70000021995409E0334B1B78022B05D1324BEB
:100D80001B781A46324B00219954324B01221A70BB
:100D90002D4B00221A7048E0294B1B78202B18D1CC
:100DA000284B1B78002B03D1264B01221A703CE004
:100DB000244B1B78012B38D1234B1B781A46234B2D
:100DC000002199541F4B02221A701F4B00221A70E7
:100DD0002BE01C4B1B78002B04D1194B1A781E4BAF
:100DE0001A7022E0174B1B78012B0DD1164B1B7884
:100DF0001A46134B1978154B9954134B1B78013332
:100E0000DAB2114B1A7010E00E4B1B78022B0CD18A
:100E10000D4B1B781A460A4B19780D4B99540A4B07
:100E20001B780133DAB2084B1A70012204490348D7
:100E300002F0D0FE00BF0837BD4680BD540100203F
:100E400012020020100200201102002014020020D3
:100E5000280200200E0200201302002080B485B07A
:100E600000AF78600B46FB70FF23FB731FE07B68CD
:100E70005A1C7A601A78FB7B5340FB730023BB73C8
:100E800012E097F90F30002B07DAFB7B5B005BB2B7
:100E900083F031035BB2DBB202E0FB7B5B00DBB2D1
:100EA000FB73BB7B0133BB73BB7B072BE9D9FB789F
:100EB0005A1EFA70002BDAD1FB7B18461437BD4658
:100EC00080BC704780B500AF0A4B00221A70142214
:100ED0000021094803F0D0FC14220021074803F048
:100EE000CBFC074B00221A70064B00221A7000BF81
:100EF00080BD00BF13020020140200202802002041
:100F0000100200201102002080B58CB002AF002337
:100F10007B62AE4B7B61AD4803F002FC3862AC48AB
:100F200003F0FEFBF861AB4B1B78653B102B00F226
:100F3000AE8101A252F823F07D0F00088F12000845
:100F40008F1200088F1200088F1200088F120008FD
:100F50008F1200088F120008651000088F12000819
:100F6000C5100008151200088F120008151000089F
:100F7000C90F00088F120008FB100008964B5B6831
:100F8000DAB2964B1A70944B5B681B0ADAB2934B39
:100F90005A70934B5B68DAB2904B9A70904B5B68D7
:100FA0001B0ADAB28D4BDA7004218C48FFF756FF2A
:100FB00003461A46894B1A714FF0FF3305228749C1
:100FC000884802F084FD63E1834BDB681B0ADAB2D8
:100FD000824B1A70804BDB68DAB2804B5A70804BC0
:100FE000DB681B0ADAB27D4B9A707D4BDB68DAB2A4
:100FF0007A4BDA7004217948FFF730FF03461A462E
:10100000764B1A714FF0FF3305227449754802F090
:101010005EFD3DE1744B1B6800225A62734B1B68F6
:1010200000225A626C48FFF7DDFC6D48FFF7DAFCDE
:101030006D4B1B685B6A002B0CD16C4B1B685B6AA9
:10104000002B07D14FF0FF3303226949654802F0B6
:101050003EFD1DE14FF0FF3306226649614802F074
:1010600036FD15E13B6A002B06D1FB69002B03D14D
:10107000614B01221A7002E0604B01221A703A6A39
:1010800013461B019B1A5B005D4A82FB03129211FF
:10109000DB17D31A1846FFF72BFC03464E4A1360A2
:1010A000FA6913461B019B1A5B00554A82FB031227
:1010B0009211DB17D31A1846FFF71AFC0346484A69
:1010C0001360E5E04448FFF7BBFC4548FFF7B8FC78
:1010D0004A4B00221A70F969386A00F095FBD7E094
:1010E000B86903F01DFB02467B6A9B0028333B4432
:1010F00043F8242C7B6A01337B627B6907F114027D
:101100004049184603F0E8FBB861BB691B78002B27
:10111000E6D17B6A042B51D17B689AB22E4B1A849C
:10112000BA6813461B019B1A5B00354A82FB031207
:101130009211DB17D31A9AB2274B5A84FB684FF4EB
:101140007A7202FB03F3304A82FB03121A44121133
:10115000DB17D31A9AB2204B9A843B699AB21E4B82
:10116000DA847B689AB21E4B1A84BA6813461B0154
:101170009B1A5B00224A82FB03129211DB17D31ADF
:101180009AB2174B5A84FB684FF47A7202FB03F34E
:101190001D4A82FB03121A441211DB17D31A9AB2AA
:1011A0000F4B9A843B699AB20D4BDA844FF0FF33B0
:1011B0000B2216490B4802F08AFC69E04FF0FF331E
:1011C00007221349074802F082FC61E01402002064
:1011D00028020020130200209C010020F0010020C2
:1011E000C401002054010020C40000200C01002094
:1011F0000C520008105200080F020020EC010020E1
:10120000D34D621018520008898888881C52000843
:1012100028520008204B1B8C19461F4B5B8C18462C
:101220001D4B9B8C1A461C4BDB8C01930092034692
:101230000A461A491A4803F0FFFA1948FEF788FFD0
:1012400003469AB24FF0FF331549164802F03FFCAF
:10125000114B1B8C1946104B5B8C18460E4B9B8C0C
:101260001A460D4BDB8C0193009203460A460E4949
:101270000B4803F0E1FA0A48FEF76AFF03469AB208
:101280004FF0FF330649074802F021FC00E000BFA1
:1012900000BF2837BD4680BD9C01002030520008A9
:1012A000F0010020540100204852000880B500AF32
:1012B00000F0CCFC00F04CF800F0F2F900F08EF8F1
:1012C00000F01CF900F06EF900F0C0F90122184995
:1012D000184802F07FFC0021174801F0F9FC0C21AE
:1012E000154801F0F5FC3C21144801F035FE3C2185
:1012F000134801F031FE1348FFF774FB1248FFF763
:1013000071FB4FF4FA7000F003FD0E48FFF798FBF5
:101310000D48FFF795FB0D4B1B78002BFBD0FFF71B
:10132000F3FDFFF7CFFD094B00221A70F3E700BF72
:1013300012020020540100207C000020C400002084
:101340000C0100209C010020C40100200E0200209E
:1013500080B590B000AF07F118032822002118468D
:1013600003F08AFA3B1D00221A605A609A60DA6024
:101370001A610123BB614FF48033FB6100233B62A0
:101380000123BB6202237B634FF48033BB634FF4C2
:10139000E013FB6307F11803184601F039F8034620
:1013A000002B01D000F0C8F90F237B600223BB6043
:1013B0000023FB604FF480633B6100237B613B1D96
:1013C0000221184601F0A6FA0346002B01D000F0D6
:1013D000B3F900BF4037BD4680BD000080B592B074
:1013E00000AF07F1400300221A605A6007F124039E
:1013F00000221A605A609A60DA601A615A619A6132
:101400003B1D20220021184603F036FA394B3A4A98
:101410001A60384B47225A60364B00229A60354B8F
:101420004FF47A72DA60334B00221A61314B00229A
:101430005A61304B00229A612E4801F0F9FB0346B5
:10144000002B01D000F078F900233B6400237B647B
:1014500007F140031946274802F028FA0346002BFB
:1014600001D000F069F960237B620023BB62002396
:10147000FB6200233B6300237B630023BB630023E9
:10148000FB6307F12403002219461A4801F01AFFF2
:101490000346002B01D000F04FF907F124030C2282
:1014A0001946144801F00EFF0346002B01D000F04E
:1014B00043F900237B600023BB600023FB60002313
:1014C0003B6100237B614FF40053BB6100233B620F
:1014D0003B1D1946074802F047FA0346002B01D08E
:1014E00000F02AF9034800F061FA00BF4837BD4612
:1014F00080BD00BF7C000020002C014080B58CB076
:1015000000AF07F10C0324220021184603F0B4F9C0
:101510003B1D00221A605A60214B4FF080421A6036
:101520001F4B00225A601E4B00229A601C4B4FF644
:10153000FF72DA601A4B00221A61194B00229A617D
:101540000323FB6000233B6101237B610023BB611C
:101550000023FB6100233B6201237B620023BB620B
:101560000023FB6207F10C0319460D4801F052FC01
:101570000346002B01D000F0DFF800237B6000233E
:10158000BB603B1D1946064802F090F90346002B4C
:1015900001D000F0D1F800BF3037BD4680BD00BF9C
:1015A000C400002080B58CB000AF07F10C032422EA
:1015B0000021184603F060F93B1D00221A605A60B2
:1015C000204B214A1A601F4B00225A601D4B0022FB
:1015D0009A601C4B4FF6FF72DA601A4B00221A61B8
:1015E000184B00229A610323FB6000233B61012317
:1015F0007B610023BB610023FB6100233B6201236D
:101600007B620023BB620023FB6207F10C031946D7
:101610000C4801F0FFFB0346002B01D000F08CF8D2
:1016200000237B600023BB603B1D1946054802F088
:101630003DF90346002B01D000F07EF800BF3037A3
:10164000BD4680BD0C0100200004004080B500AF05
:10165000114B124A1A60104B4FF4E1325A600E4B94
:1016600000229A600C4B0022DA600B4B00221A61B8
:10167000094B0C225A61084B00229A61064B00224A
:10168000DA61054802F0D3F90346002B01D000F0DF
:1016900053F800BF80BD00BF540100200038014056
:1016A00080B588B000AF07F1100300221A605A60BD
:1016B0009A60DA601E4B9B691D4A43F020039361D8
:1016C0001B4B9B6903F02003FB60FB68184B9B6975
:1016D000174A43F004039361154B9B6903F004031D
:1016E000BB60BB68124B9B69114A43F008039361CE
:1016F0000F4B9B6903F008037B607B6800224FF46B
:1017000070410C4800F06CFE4FF470433B610123C4
:101710007B610023BB610223FB6107F110031946C3
:10172000044800F0D9FC00BF2037BD4680BD00BF93
:1017300000100240000C014080B400AF72B600BF40
:10174000FEE7000080B584B000AF78603960002308
:10175000FB733B68002B04DA3B685B423B60012370
:10176000FB733B68B3F57A7F02DD4FF47A733B601D
:101770007B68002B20D1FB7B002B0CD001224FF487
:1017800080511F4800F02CFE00224FF400511C48ED
:1017900000F026FE0BE000224FF48051184800F0C4
:1017A0001FFE01224FF40051154800F019FE154BA1
:1017B0001B683A685A631FE0FB7B002B0CD00122A8
:1017C0004FF480410E4800F00BFE00224FF4004120
:1017D0000B4800F005FE0BE000224FF48041084862
:1017E00000F0FEFD01224FF40041054800F0F8FD35
:1017F000044B1B683A681A6400BF1037BD4680BDB1
:10180000000C01407C00002080B582B000AF786001
:10181000396079680020FFF795FF39680120FFF7EC
:1018200091FF00BF0837BD4680BD000080B483B083
:1018300000AF0E4B9B690D4A43F0010393610B4BC4
:101840009B6903F001037B607B68084BDB69074AF7
:1018500043F08053D361054BDB6903F080533B6059
:101860003B6800BF0C37BD4680BC7047001002408B
:1018700080B584B000AF78607B681B680D4A9342E6
:1018800013D10D4B9B690C4A43F4006393610A4BDF
:101890009B6903F40063FB60FB68002200211920B0
:1018A00000F031FB192000F04AFB00BF1037BD46A5
:1018B00080BD00BF002C01400010024080B58AB0FE
:1018C00000AF786007F1180300221A605A609A602E
:1018D000DA607B681B68B3F1804F2CD1304BDB6939
:1018E0002F4A43F00103D3612D4BDB6903F0010361
:1018F0007B617B692A4B9B69294A43F0040393610E
:10190000274B9B6903F004033B613B690323BB61E5
:101910000023FB6100233B6207F1180319462148AD
:1019200000F0DAFB002200211C2000F0ECFA1C2061
:1019300000F005FB30E07B681B681B4A93422BD10B
:10194000174BDB69164A43F00203D361144BDB6982
:1019500003F00203FB60FB68114B9B69104A43F0E4
:10196000040393610E4B9B6903F00403BB60BB68E7
:10197000C023BB610023FB6100233B6207F1180316
:101980001946084800F0A8FB002200211D2000F0A5
:10199000BAFA1D2000F0D3FA00BF2837BD4680BD3B
:1019A00000100240000801400004004080B588B0EB
:1019B00000AF786007F1100300221A605A609A6045
:1019C000DA607B681B68104A934218D10F4B9B6901
:1019D0000E4A43F0040393610C4B9B6903F004032C
:1019E000FB60FB684FF410633B6102237B610223C1
:1019F000FB6107F110031946054800F06DFB00BFBD
:101A00002037BD4680BD00BF002C014000100240C1
:101A10000008014080B588B000AF786007F110037E
:101A200000221A605A609A60DA607B681B68204A5C
:101A3000934239D11F4B9B691E4A43F48043936103
:101A40001C4B9B6903F48043FB60FB68194B9B694B
:101A5000184A43F004039361164B9B6903F0040397
:101A6000BB60BB684FF400733B6102237B610323BF
:101A7000FB6107F1100319460F4800F02DFB4FF4EE
:101A800080633B6100237B610023BB6107F110038E
:101A90001946094800F020FB00220021252000F013
:101AA00032FA252000F04BFA00BF2037BD4680BD3A
:101AB00000380140001002400008014080B400AF2F
:101AC000FEE780B400AFFEE780B400AFFEE780B46D
:101AD00000AFFEE780B400AFFEE780B400AF00BF08
:101AE000BD4680BC704780B400AF00BFBD4680BC1F
:101AF000704780B400AF00BFBD4680BC7047000097
:101B000080B500AF094B1B680133084A1360074BCF
:101B10001B681E2B06D106490648FFF78FF8034BBA
:101B200000221A6000F0D8F800BF80BD3C020020FF
:101B3000C40100209C01002080B500AF024801F0E4
:101B4000B9FA00BF80BD00BF7C00002080B500AFA7
:101B5000024801F0AFFA00BF80BD00BFC400002002
:101B600080B500AF024801F0A5FA00BF80BD00BFFC
:101B70000C01002080B500AF024802F051F800BF10
:101B800080BD00BF5401002080B586B000AF7860F2
:101B9000144A154BD31A7B617B693B61134B1B685D
:101BA000002B02D1114B124A1A60104B1A687B6845
:101BB00013443A699A4207D202F092FE03460C227D
:101BC0001A604FF0FF3309E0084B1B68FB60074BBE
:101BD0001A687B681344054A1360FB681846183777
:101BE000BD4680BD005000200004000040020020DF
:101BF0009003002080B400AF00BFBD4680BC70479A
:101C0000FFF7F8FF0B480C490C4A002302E0D458B8
:101C1000C4500433C4188C42F9D3094A094C002338
:101C200001E013600432A242FBD302F05FFEFFF733
:101C30003DFB7047000000205C000020C8530008F6
:101C40005C00002090030020FEE7000080B500AF9C
:101C5000084B1B68074A43F010031360032000F091
:101C600047F90F2000F008F8FFF7E0FD00231846C1
:101C700080BD00BF0020024080B582B000AF786018
:101C8000124B1A68124B1B7819464FF47A73B3FB48
:101C9000F1F3B2FBF3F3184600F05FF90346002BB3
:101CA00001D001230EE07B680F2B0AD8002279684F
:101CB0004FF0FF3000F027F9064A7B6813600023DD
:101CC00000E0012318460837BD4680BD0000002013
:101CD000080000200400002080B400AF054B1B78F2
:101CE0001A46054B1B681344034A136000BFBD46E8
:101CF00080BC7047080000204402002080B400AF80
:101D0000024B1B681846BD4680BC70474402002049
:101D100080B584B000AF7860FFF7F0FFB8607B68F3
:101D2000FB60FB68B3F1FF3F05D00A4B1B781A46F6
:101D3000FB681344FB6000BFFFF7E0FF0246BB688F
:101D4000D31AFA689A42F7D800BF00BF1037BD46D1
:101D500080BD00BF0800002080B485B000AF78606F
:101D60007B6803F00703FB600C4BDB68BB60BA6861
:101D70004FF6FF031340BB60FB681A02BB681343B6
:101D800043F0BF6343F40033BB60044ABB68D360D5
:101D900000BF1437BD4680BC704700BF00ED00E0B7
:101DA00080B400AF044BDB681B0A03F0070318463E
:101DB000BD4680BC704700BF00ED00E080B483B03A
:101DC00000AF0346FB7197F90730002B0BDBFB7963
:101DD00003F01F02064997F907305B09012000FA5A
:101DE00002F241F8232000BF0C37BD4680BC70478B
:101DF00000E100E080B483B000AF03463960FB71BE
:101E000097F90730002B0ADB3B68DAB20C4997F9E7
:101E100007301201D2B20B4483F800230AE03B687A
:101E2000DAB20849FB7903F00F03043B1201D2B286
:101E30000B441A7600BF0C37BD4680BC704700BF0C
:101E400000E100E000ED00E080B489B000AFF86090
:101E5000B9607A60FB6803F00703FB61FB69C3F1BB
:101E60000703042B28BF0423BB61FB690433062B43
:101E700002D9FB69033B00E000237B614FF0FF3296
:101E8000BB6902FA03F3DA43BB681A407B699A40E4
:101E90004FF0FF317B6901FA03F3D9437B680B40B4
:101EA000134318462437BD4680BC704780B582B0C6
:101EB00000AF78607B68013BB3F1807F01D30123E1
:101EC0000FE00A4A7B68013B53600F214FF0FF305F
:101ED000FFF790FF054B00229A60044B07221A601F
:101EE000002318460837BD4680BD00BF10E000E063
:101EF00080B582B000AF78607868FFF72DFF00BF33
:101F00000837BD4680BD80B586B000AF0346B960D6
:101F10007A60FB7300237B61FFF742FF78617A6888
:101F2000B9687869FFF790FF024697F90F301146BC
:101F30001846FFF75FFF00BF1837BD4680BD80B56C
:101F400082B000AF0346FB7197F907301846FFF7E0
:101F500035FF00BF0837BD4680BD80B582B000AFF9
:101F600078607868FFF7A2FF034618460837BD4639
:101F700080BD80B485B000AF78600023FB737B68C0
:101F800093F82130DBB2022B08D07B6804229A63DD
:101F90007B68002283F82020012320E07B681B68F7
:101FA0001A687B681B6822F00E021A607B681B6847
:101FB0001A687B681B6822F001021A607B681A6C41
:101FC0007B68DB6B012101FA02F25A607B68012217
:101FD00083F821207B68002283F82020FB7B1846B1
:101FE0001437BD4680BC704780B584B000AF7860C0
:101FF0000023FB737B6893F82130DBB2022B05D002
:102000007B6804229A630123FB7351E07B681B68A1
:102010001A687B681B6822F00E021A607B681B68D6
:102020001A687B681B6822F001021A607B681B68D3
:10203000224A934229D07B681B68214A934222D0CE
:102040007B681B681F4A93421AD07B681B681E4A34
:10205000934212D07B681B681C4A93420AD07B686B
:102060001B681B4A934202D14FF480130EE04FF0DD
:1020700080730BE04FF4803308E04FF4805305E0A9
:102080004FF4807302E0102300E00123114A5360F3
:102090007B68012283F821207B68002283F82020BE
:1020A0007B685B6B002B03D07B685B6B7868984721
:1020B000FB7B18461037BD4680BD00BF08000240BC
:1020C0001C00024030000240440002405800024020
:1020D0006C0002400000024080B48BB000AF78601A
:1020E000396000237B6200233B6269E101227B6A45
:1020F00002FA03F3FB613B681B68FA691340BB619A
:10210000BA69FB699A4240F058813B685B689A4A19
:1021100093425ED0984A934275D8984A934258D0D9
:10212000964A93426FD8964A934252D0944A934229
:1021300069D8944A93424CD0924A934263D8924AC7
:10214000934246D0904A93425DD8122B2AD8122B44
:1021500059D801A252F823F0D3210008AD2100087C
:10216000BF210008012200080722000807220008FA
:10217000072200080722000807220008072200089B
:10218000072200080722000807220008072200088B
:10219000072200080722000807220008B5210008CE
:1021A000C9210008794A934213D02CE03B68DB68D0
:1021B0003B6229E03B68DB6804333B6224E03B6818
:1021C000DB6808333B621FE03B68DB680C333B6233
:1021D0001AE03B689B68002B02D104233B6213E0AA
:1021E0003B689B68012B05D108233B627B68FA6939
:1021F0001A6109E008233B627B68FA695A6103E0CF
:1022000000233B6200E000BFBB69FF2B01D87B6865
:1022100001E07B6804337B61BB69FF2B02D87B6ADA
:102220009B0002E07B6A083B9B003B617B691A686C
:102230000F213B6901FA03F3DB431A40396A3B691A
:1022400001FA03F31A437B691A603B685B6803F089
:102250008053002B00F0B1804D4B9B694C4A43F0FA
:10226000010393614A4B9B6903F00103BB60BB68A8
:10227000484A7B6A9B08023352F82330FB607B6A32
:1022800003F003039B000F2202FA03F3DB43FA6817
:102290001340FB607B68404A934213D07B683F4AFF
:1022A00093420DD07B683E4A934207D07B683D4AFB
:1022B000934201D1032306E0042304E0022302E059
:1022C000012300E000237A6A02F0030292009340A7
:1022D000FA681343FB602F497B6A9B080233FA6854
:1022E00041F823203B685B6803F48013002B06D081
:1022F0002D4B9A682C49BB6913438B6006E02A4B2F
:102300009A68BB69DB43284913408B603B685B6874
:1023100003F40013002B06D0234BDA682249BB6973
:102320001343CB6006E0204BDA68BB69DB431E49F0
:102330001340CB603B685B6803F40033002B06D08E
:10234000194B5A681849BB6913434B6006E0164B9A
:102350005A68BB69DB43144913404B603B685B68B8
:1023600003F48033002B21D00F4B1A680E49BB6950
:1023700013430B6021E000BF000032100000311059
:1023800000002210000021100000121000001110A7
:10239000001002400000014000080140000C014014
:1023A0000010014000140140000401400B4B1A686A
:1023B000BB69DB43094913400B607B6A01337B62D5
:1023C0003B681A687B6A22FA03F3002B7FF48EAE17
:1023D00000BF00BF2C37BD4680BC704700040140E1
:1023E00080B483B000AF78600B467B8013467B706F
:1023F0007B78002B03D07A887B681A6103E07B88A6
:102400001A047B681A6100BF0C37BD4680BC704758
:1024100080B586B000AF78607B68002B01D10123C6
:1024200072E27B681B6803F00103002B00F08780D9
:10243000924B5B6803F00C03042B0CD08F4B5B6852
:1024400003F00C03082B12D18C4B5B6803F4803330
:10245000B3F5803F0BD1894B1B6803F40033002B8D
:102460006CD07B685B68002B68D101234CE27B68F1
:102470005B68B3F5803F06D1804B1B687F4A43F40D
:10248000803313602EE07B685B68002B0CD17B4BA4
:102490001B687A4A23F480331360784B1B68774AB1
:1024A00023F4802313601DE07B685B68B3F5A02FE5
:1024B0000CD1724B1B68714A43F4802313606F4B3D
:1024C0001B686E4A43F4803313600BE06B4B1B6850
:1024D0006A4A23F480331360684B1B68674A23F40D
:1024E000802313607B685B68002B13D0FFF706FC2A
:1024F000386108E0FFF702FC02463B69D31A642BFF
:1025000001D9032300E25D4B1B6803F40033002B69
:10251000F0D014E0FFF7F2FB386108E0FFF7EEFBC4
:1025200002463B69D31A642B01D90323ECE1534BD8
:102530001B6803F40033002BF0D100E000BF7B6880
:102540001B6803F00203002B63D04C4B5B6803F065
:102550000C03002B0BD0494B5B6803F00C03082BDA
:102560001CD1464B5B6803F48033002B16D1434BE0
:102570001B6803F00203002B05D07B681B69012B4D
:1025800001D00123C0E13D4B1B6823F0F8027B68BA
:102590005B69DB00394913430B603AE07B681B69D8
:1025A000002B20D0364B01221A60FFF7A7FB3861C1
:1025B00008E0FFF7A3FB02463B69D31A022B01D9BF
:1025C0000323A1E12D4B1B6803F00203002BF0D085
:1025D0002A4B1B6823F0F8027B685B69DB00274904
:1025E00013430B6015E0264B00221A60FFF786FBB1
:1025F000386108E0FFF782FB02463B69D31A022BE1
:1026000001D9032380E11D4B1B6803F00203002B5B
:10261000F0D17B681B6803F00803002B3AD07B687D
:102620009B69002B19D0174B01221A60FFF766FB3C
:10263000386108E0FFF762FB02463B69D31A022BC0
:1026400001D9032360E10D4B5B6A03F00203002B09
:10265000F0D0012000F0CEFA1CE00A4B00221A60F4
:10266000FFF74CFB38610FE0FFF748FB02463B6980
:10267000D31A022B08D9032346E100BF0010024001
:102680000000424280044242924B5B6A03F0020324
:10269000002BE9D17B681B6803F00403002B00F0DA
:1026A000A6800023FB758B4BDB6903F08053002B66
:1026B0000DD1884BDB69874A43F08053D361854B4A
:1026C000DB6903F08053BB60BB680123FB75824B61
:1026D0001B6803F48073002B18D17F4B1B687E4A64
:1026E00043F480731360FFF709FB386108E0FFF7DC
:1026F00005FB02463B69D31A642B01D9032303E18E
:10270000754B1B6803F48073002BF0D07B68DB688B
:10271000012B06D16F4B1B6A6E4A43F00103136213
:102720002DE07B68DB68002B0CD16A4B1B6A694A81
:1027300023F001031362674B1B6A664A23F004030C
:1027400013621CE07B68DB68052B0CD1614B1B6AB4
:10275000604A43F0040313625E4B1B6A5D4A43F018
:10276000010313620BE05B4B1B6A5A4A23F001031F
:102770001362584B1B6A574A23F0040313627B68A9
:10278000DB68002B15D0FFF7B9FA38610AE0FFF7D4
:10279000B5FA02463B69D31A41F28832934201D915
:1027A0000323B1E04B4B1B6A03F00203002BEED076
:1027B00014E0FFF7A3FA38610AE0FFF79FFA024638
:1027C0003B69D31A41F28832934201D903239BE03B
:1027D000404B1B6A03F00203002BEED1FB7D012B63
:1027E00005D13C4BDB693B4A23F08053D3617B68C6
:1027F000DB69002B00F08780364B5B6803F00C032D
:10280000082B61D07B68DB69022B46D1334B002259
:102810001A60FFF773FA386108E0FFF76FFA0246B3
:102820003B69D31A022B01D903236DE0294B1B68A6
:1028300003F00073002BF0D17B681B6AB3F5803F77
:1028400008D1244B5B6823F400327B689B682149E4
:1028500013434B601F4B5B6823F474127B68196A47
:102860007B685B6A0B431B4913434B601B4B012284
:102870001A60FFF743FA386108E0FFF73FFA0246B3
:102880003B69D31A022B01D903233DE0114B1B688E
:1028900003F00073002BF0D035E0104B00221A60DB
:1028A000FFF72CFA386108E0FFF728FA02463B6987
:1028B000D31A022B01D9032326E0064B1B6803F031
:1028C0000073002BF0D11EE07B68DB69012B07D180
:1028D000012319E0001002400070004060004242F5
:1028E0000B4B5B68FB60FB6803F480327B681B6A00
:1028F0009A4206D1FB6803F470127B685B6A9A42C5
:1029000001D0012300E0002318461837BD4680BDE2
:102910000010024080B584B000AF786039607B68F9
:10292000002B01D10123D0E06A4B1B6803F00703A1
:102930003A689A4210D9674B1B6823F00702654931
:102940003B6813430B60634B1B6803F007033A6853
:102950009A4201D00123B8E07B681B6803F00203B0
:10296000002B20D07B681B6803F00403002B05D0EC
:10297000594B5B68584A43F4E06353607B681B68BB
:1029800003F00803002B05D0534B5B68524A43F415
:1029900060535360504B5B6823F0F0027B689B6888
:1029A0004D4913434B607B681B6803F00103002B08
:1029B00040D07B685B68012B07D1474B1B6803F451
:1029C0000033002B15D101237FE07B685B68022B6D
:1029D00007D1414B1B6803F00073002B09D1012381
:1029E00073E03D4B1B6803F00203002B01D1012370
:1029F0006BE0394B5B6823F003027B685B68364908
:102A000013434B60FFF77AF9F8600AE0FFF776F9B5
:102A10000246FB68D31A41F28832934201D903235C
:102A200053E02D4B5B6803F00C027B685B689B00F6
:102A30009A42EBD1274B1B6803F007033A689A428E
:102A400010D2244B1B6823F0070222493B68134332
:102A50000B60204B1B6803F007033A689A4201D0D1
:102A6000012332E07B681B6803F00403002B08D0CD
:102A7000194B5B6823F4E0627B68DB6816491343FB
:102A80004B607B681B6803F00803002B09D0124BD6
:102A90005B6823F460527B681B69DB000E491343BB
:102AA0004B6000F021F802460B4B5B681B0903F0FA
:102AB0000F030A49CB5C22FA03F3094A1360094B5E
:102AC0001B681846FFF7D8F8002318461037BD4694
:102AD00080BD00BF0020024000100240605200088C
:102AE000000000200400002080B487B000AF002365
:102AF000FB600023BB6000237B6100237B6000231D
:102B00003B611E4B5B68FB60FB6803F00C03042B0E
:102B100002D0082B03D027E0194B3B6127E0FB686C
:102B20009B0C03F00F03174AD35C7B60FB6803F434
:102B30008033002B10D0114B5B685B0C03F001035A
:102B4000114AD35CBB607B680D4A03FB02F2BB6891
:102B5000B2FBF3F37B6104E07B680C4A02FB03F3F6
:102B60007B617B693B6102E0054B3B6100BF3B69D8
:102B700018461C37BD4680BC704700BF001002409D
:102B800000127A00785200088852000800093D00BF
:102B900080B400AF024B1B681846BD4680BC70472E
:102BA0000000002080B500AFFFF7F2FF0246054BA2
:102BB0005B681B0A03F007030349CB5C22FA03F3AB
:102BC000184680BD001002407052000880B500AF6A
:102BD000FFF7DEFF0246054B5B68DB0A03F00703E5
:102BE0000349CB5C22FA03F3184680BD0010024073
:102BF0007052000880B485B000AF78600A4B1B6843
:102C00000A4AA2FB03235B0A7A6802FB03F3FB6018
:102C100000BFFB685A1EFA60002BF9D100BF00BF4D
:102C20001437BD4680BC704700000020D34D6210B1
:102C300080B582B000AF78607B68002B01D10123A2
:102C400041E07B6893F83D30DBB2002B06D17B6816
:102C5000002283F83C207868FEF70AFE7B68022297
:102C600083F83D207B681A687B6804331946104658
:102C700000F00EFC7B68012283F846207B6801226D
:102C800083F83E207B68012283F83F207B68012285
:102C900083F840207B68012283F841207B68012271
:102CA00083F842207B68012283F843207B6801225D
:102CB00083F844207B68012283F845207B68012249
:102CC00083F83D20002318460837BD4680BD00002C
:102CD00080B584B000AF786039603B68002B09D1C3
:102CE0007B6893F83E30DBB2012B14BF0123002335
:102CF000DBB222E03B68042B09D17B6893F83F30BC
:102D0000DBB2012B14BF01230023DBB215E03B68CB
:102D1000082B09D17B6893F84030DBB2012B14BF3C
:102D200001230023DBB208E07B6893F84130DBB27B
:102D3000012B14BF01230023DBB2002B01D00123A0
:102D40005EE03B68002B04D17B68022283F83E20C2
:102D500013E03B68042B04D17B68022283F83F20F8
:102D60000BE03B68082B04D17B68022283F84020EB
:102D700003E07B68022283F841207B681B68012204
:102D80003968184600F06EFD7B681B681E4A934246
:102D900007D17B681B685A6C7B681B6842F4004251
:102DA0005A647B681B68184A93420ED07B681B6884
:102DB000B3F1804F09D07B681B68144A934204D05A
:102DC0007B681B68124A934211D17B681B689B6821
:102DD00003F00703FB60FB68062B10D07B681B68C1
:102DE0001A687B681B6842F001021A6007E07B6882
:102DF0001B681A687B681B6842F001021A60002396
:102E000018461037BD4680BD002C0140000400402C
:102E10000008004080B586B000AF786039607B68FC
:102E2000002B01D1012393E07B6893F83D30DBB2A6
:102E3000002B06D17B68002283F83C207868FEF7DF
:102E40003DFD7B68022283F83D207B681B689B6800
:102E50007A68126823F4804323F0070393607B6849
:102E60001A687B6804331946104600F011FB7B6832
:102E70001B689B687B617B681B689B693B617B6807
:102E80001B681B6AFB603B681B687A6913437B61A4
:102E90003B6923F4407323F003033B613B689A686A
:102EA0003B689B691B0213433A6913433B613B69CF
:102EB00023F4406323F00C033B613B6923F470432C
:102EC00023F0F0033B613B68DA683B68DB691B0277
:102ED00013433A6913433B613B681B691A013B6822
:102EE0001B6A1B0313433A6913433B61FB6823F0DE
:102EF0002203FB603B685A683B685B691B01134314
:102F0000FA681343FB607B681B687A699A607B6888
:102F10001B683A699A617B681B68FA681A627B6869
:102F2000012283F846207B68012283F83E207B68DB
:102F3000012283F83F207B68012283F842207B68CE
:102F4000012283F843207B68012283F83D2000237F
:102F500018461837BD4680BD80B584B000AF786094
:102F600039607B6893F83E30FB737B6893F83F30A1
:102F7000BB737B6893F842307B737B6893F8433074
:102F80003B733B68002B10D1FB7B012B02D17B7B79
:102F9000012B01D0012389E07B68022283F83E20C7
:102FA0007B68022283F8422031E03B68042B10D179
:102FB000BB7B012B02D13B7B012B01D0012375E0B0
:102FC0007B68022283F83F207B68022283F843203B
:102FD0001DE0FB7B012B08D1BB7B012B05D17B7B4B
:102FE000012B02D13B7B012B01D001235EE07B68EA
:102FF000022283F83E207B68022283F83F207B6810
:10300000022283F842207B68022283F843203B6837
:10301000002B03D03B68042B10D01FE07B681B689B
:1030200001220021184600F01DFC7B681B68DA684D
:103030007B681B6842F00202DA602EE07B681B6846
:1030400001220421184600F00DFC7B681B68DA6839
:103050007B681B6842F00402DA601EE07B681B6834
:1030600001220021184600F0FDFB7B681B6801224D
:103070000421184600F0F6FB7B681B68DA687B6861
:103080001B6842F00202DA607B681B68DA687B68C2
:103090001B6842F00402DA6000BF7B681B681A6894
:1030A0007B681B6842F001021A6000231846103743
:1030B000BD4680BD80B582B000AF78607B681B687C
:1030C0001B6903F00203022B22D17B681B68DB68BB
:1030D00003F00203022B1BD17B681B686FF0020216
:1030E0001A617B6801221A777B681B689B6903F071
:1030F0000303002B03D07868FDF7F8FD05E078683E
:1031000000F0ABF9786800F0B1F97B6800221A771B
:103110007B681B681B6903F00403042B22D17B68C6
:103120001B68DB6803F00403042B1BD17B681B685E
:103130006FF004021A617B6802221A777B681B68B1
:103140009B6903F44073002B03D07868FDF7CEFD34
:1031500005E0786800F081F9786800F087F97B680D
:1031600000221A777B681B681B6903F00803082B91
:1031700022D17B681B68DB6803F00803082B1BD196
:103180007B681B686FF008021A617B6804221A775B
:103190007B681B68DB6903F00303002B03D07868AE
:1031A000FDF7A4FD05E0786800F057F9786800F0B5
:1031B0005DF97B6800221A777B681B681B6903F046
:1031C0001003102B22D17B681B68DB6803F010030F
:1031D000102B1BD17B681B686FF010021A617B6893
:1031E00008221A777B681B68DB6903F44073002BA5
:1031F00003D07868FDF77AFD05E0786800F02DF9D6
:10320000786800F033F97B6800221A777B681B68C6
:103210001B6903F00103012B0ED17B681B68DB687F
:1032200003F00103012B07D17B681B686FF00102DB
:103230001A61786800F008F97B681B681B6903F065
:103240008003802B0ED17B681B68DB6803F0800352
:10325000802B07D17B681B686FF080021A61786849
:1032600000F0DCFB7B681B681B6903F04003402B0C
:103270000ED17B681B68DB6803F04003402B07D14D
:103280007B681B686FF040021A61786800F0F7F8FD
:103290007B681B681B6903F02003202B0ED17B6821
:1032A0001B68DB6803F02003202B07D17B681B68B9
:1032B0006FF020021A61786800F0A7FB00BF0837A2
:1032C000BD4680BD80B586B000AFF860B9607A6059
:1032D0000023FB75FB6893F83C30012B01D10223DE
:1032E000AEE0FB68012283F83C207B680C2B00F2E7
:1032F0009F8001A252F823F02D33000831340008DA
:1033000031340008313400086D33000831340008CE
:103310003134000831340008AF330008313400087C
:103320003134000831340008EF330008FB681B68B3
:10333000B968184600F00EF9FB681B689A69FB68CB
:103340001B6842F008029A61FB681B689A69FB6877
:103350001B6822F004029A61FB681B689969BB68CC
:103360001A69FB681B680A439A6164E0FB681B6882
:10337000B968184600F054F9FB681B689A69FB6845
:103380001B6842F400629A61FB681B689A69FB68DB
:103390001B6822F480629A61FB681B689969BB68AC
:1033A0001B691A02FB681B680A439A6143E0FB68C9
:1033B0001B68B968184600F09DF9FB681B68DA695C
:1033C000FB681B6842F00802DA61FB681B68DA6977
:1033D000FB681B6822F00402DA61FB681B68D9698C
:1033E000BB681A69FB681B680A43DA6123E0FB6863
:1033F0001B68B968184600F0E7F9FB681B68DA69D2
:10340000FB681B6842F40062DA61FB681B68DA69DA
:10341000FB681B6822F48062DA61FB681B68D9696B
:10342000BB681B691A02FB681B680A43DA6102E089
:103430000123FB7500BFFB68002283F83C20FB7D65
:1034400018461837BD4680BD80B483B000AF7860A1
:1034500000BF0C37BD4680BC704780B483B000AF5E
:10346000786000BF0C37BD4680BC704780B483B025
:1034700000AF786000BF0C37BD4680BC704780B499
:1034800083B000AF786000BF0C37BD4680BC70478A
:1034900080B485B000AF786039607B681B68FB60E2
:1034A0007B68294A93420BD07B68B3F1804F07D0E9
:1034B0007B68264A934203D07B68254A934208D111
:1034C000FB6823F07003FB603B685B68FA6813439A
:1034D000FB607B681C4A93420BD07B68B3F1804F42
:1034E00007D07B68194A934203D07B68184A9342FD
:1034F00008D1FB6823F44073FB603B68DB68FA6823
:103500001343FB60FB6823F080023B685B69134355
:10351000FB607B68FA681A603B689A687B68DA62CD
:103520003B681A687B689A627B68074A934203D1BA
:103530003B681A697B681A637B6801225A6100BF85
:103540001437BD4680BC7047002C01400004004089
:103550000008004080B487B000AF786039607B68B5
:103560001B6A7B617B681B6A23F001027B681A621D
:103570007B685B683B617B689B69FB60FB6823F051
:103580007003FB60FB6823F00303FB603B681B6870
:10359000FA681343FB607B6923F002037B613B689D
:1035A0009B687A6913437B617B681C4A93420CD108
:1035B0007B6923F008037B613B68DB687A6913430E
:1035C0007B617B6923F004037B617B68134A934230
:1035D00011D13B6923F480733B613B6923F4007391
:1035E0003B613B685B693A6913433B613B689B699C
:1035F0003A6913433B617B683A695A607B68FA68B1
:103600009A613B685A687B685A637B687A691A6278
:1036100000BF1C37BD4680BC704700BF002C014076
:1036200080B487B000AF786039607B681B6A7B61CB
:103630007B681B6A23F010027B681A627B685B68F8
:103640003B617B689B69FB60FB6823F4E043FB60A4
:10365000FB6823F44073FB603B681B681B02FA683D
:103660001343FB607B6923F020037B613B689B680D
:103670001B017A6913437B617B681D4A93420DD11C
:103680007B6923F080037B613B68DB681B017A69FF
:1036900013437B617B6923F040037B617B68144AA1
:1036A000934213D13B6923F480633B613B6923F46C
:1036B00000633B613B685B699B003A6913433B6174
:1036C0003B689B699B003A6913433B617B683A699D
:1036D0005A607B68FA689A613B685A687B689A63AB
:1036E0007B687A691A6200BF1C37BD4680BC704790
:1036F000002C014080B487B000AF786039607B68EF
:103700001B6A7B617B681B6A23F480727B681A6288
:103710007B685B683B617B68DB69FB60FB6823F06F
:103720007003FB60FB6823F00303FB603B681B68CE
:10373000FA681343FB607B6923F400737B613B6889
:103740009B681B027A6913437B617B681D4A934225
:103750000DD17B6923F400637B613B68DB681B024E
:103760007A6913437B617B6923F480637B617B68A7
:10377000144A934213D13B6923F480533B613B6964
:1037800023F400533B613B685B691B013A691343B7
:103790003B613B689B691B013A6913433B617B6852
:1037A0003A695A607B68FA68DA613B685A687B68F4
:1037B000DA637B687A691A6200BF1C37BD4680BC39
:1037C000704700BF002C014080B487B000AF786024
:1037D00039607B681B6A3B617B681B6A23F48052FB
:1037E0007B681A627B685B687B617B68DB69FB6076
:1037F000FB6823F4E043FB60FB6823F44073FB6049
:103800003B681B681B02FA681343FB603B6923F4A7
:1038100000533B613B689B681B033A6913433B6160
:103820007B680F4A934209D17B6923F480437B6113
:103830003B685B699B017A6913437B617B687A69AA
:103840005A607B68FA68DA613B685A687B681A6478
:103850007B683A691A6200BF1C37BD4680BC70475E
:10386000002C014080B487B000AFF860B9607A6086
:10387000BB6803F01F03012202FA03F37B61FB68BC
:103880001A6A7B69DB431A40FB681A62FB681A6A92
:10389000BB6803F01F03796801FA03F31A43FB685E
:1038A0001A6200BF1C37BD4680BC704780B485B02B
:1038B00000AF786039607B6893F83C30012B01D110
:1038C000022346E07B68012283F83C207B680222C9
:1038D00083F83D207B681B685B68FB607B681B6826
:1038E0009B68BB60FB6823F07003FB603B681B6850
:1038F000FA681343FB607B681B68FA685A607B6850
:103900001B68164A93420ED07B681B68B3F1804F48
:1039100009D07B681B68124A934204D07B681B68FD
:10392000104A93420CD1BB6823F08003BB603B6814
:103930005B68BA681343BB607B681B68BA689A60AF
:103940007B68012283F83D207B68002283F83C20BD
:10395000002318461437BD4680BC7047002C014038
:10396000000400400008004080B485B000AF7860DB
:1039700039600023FB607B6893F83C30012B01D158
:1039800002233DE07B68012283F83C20FB6823F0A2
:10399000FF023B68DB681343FB60FB6823F4407263
:1039A0003B689B681343FB60FB6823F480623B68C1
:1039B0005B681343FB60FB6823F400623B681B6891
:1039C0001343FB60FB6823F480523B681B6913437D
:1039D000FB60FB6823F400523B685B691343FB60A8
:1039E000FB6823F480423B68DB691343FB607B6820
:1039F0001B68FA685A647B68002283F83C20002325
:103A000018461437BD4680BC704780B483B000AF01
:103A1000786000BF0C37BD4680BC704780B483B06F
:103A200000AF786000BF0C37BD4680BC704780B5E2
:103A300082B000AF78607B68002B01D1012342E0A7
:103A40007B6893F84130DBB2002B06D17B68002203
:103A500083F840207868FDF7DDFF7B68242283F837
:103A600041207B681B68DA687B681B6822F400527F
:103A7000DA60786800F0C6FD7B681B681A697B68AD
:103A80001B6822F490421A617B681B685A697B6844
:103A90001B6822F02A025A617B681B68DA687B681F
:103AA0001B6842F40052DA607B6800225A647B682B
:103AB000202283F841207B68202283F842207B6803
:103AC00000225A63002318460837BD4680BD80B5E2
:103AD0008AB002AFF860B9603B601346FB800023F8
:103AE0007B61FB6893F84130DBB2202B6DD1BB6862
:103AF000002B02D0FB88002B01D1012366E0FB687C
:103B000000225A64FB68212283F84120FEF7F6F870
:103B10007861FB68FA889A84FB68FA88DA84FB6823
:103B20009B68B3F5805F08D1FB681B69002B04D14B
:103B30000023FB61BB68BB6103E0BB68FB61002342
:103B4000BB612AE03B6800937B6900228021F86812
:103B500000F015FB0346002B01D0032336E0FB6980
:103B6000002B0BD1BB691B881A46FB681B68C2F38C
:103B700008025A60BB690233BB6107E0FB691A782F
:103B8000FB681B685A60FB690133FB61FB68DB8CD7
:103B90009BB2013B9AB2FB68DA84FB68DB8C9BB278
:103BA000002BCFD13B6800937B6900224021F8684D
:103BB00000F0E5FA0346002B01D0032306E0FB6882
:103BC000202283F84120002300E0022318462037FA
:103BD000BD4680BD80B584B000AFF860B9601346C3
:103BE000FB80FB6893F84230DBB2202B12D1BB681C
:103BF000002B02D0FB88002B01D101230BE0FB68D6
:103C000000221A63FB881A46B968F86800F025FBA1
:103C1000034600E0022318461037BD4680BD000071
:103C200080B5BAB000AF78607B681B681B68C7F8C6
:103C3000E4307B681B68DB68C7F8E0307B681B6892
:103C40005B69C7F8DC300023C7F8D8300023C7F819
:103C5000D430D7F8E43003F00F03C7F8D830D7F8E2
:103C6000D830002B0FD1D7F8E43003F02003002B1D
:103C700009D0D7F8E03003F02003002B03D0786898
:103C800000F001FC5BE2D7F8D830002B00F0DE80BA
:103C9000D7F8DC3003F00103002B06D1D7F8E03071
:103CA00003F49073002B00F0D180D7F8E43003F0D8
:103CB0000103002B0BD0D7F8E03003F48073002B06
:103CC00005D07B685B6C43F001027B685A64D7F8CF
:103CD000E43003F00403002B0BD0D7F8DC3003F002
:103CE0000103002B05D07B685B6C43F002027B680C
:103CF0005A64D7F8E43003F00203002B0BD0D7F856
:103D0000DC3003F00103002B05D07B685B6C43F0D3
:103D100004027B685A64D7F8E43003F00803002BF0
:103D200011D0D7F8E03003F02003002B05D1D7F8ED
:103D3000DC3003F00103002B05D07B685B6C43F0A3
:103D400008027B685A647B685B6C002B00F0F28190
:103D5000D7F8E43003F02003002B08D0D7F8E03088
:103D600003F02003002B02D0786800F08CFB7B6806
:103D70001B685B6903F04003002B14BF0123002381
:103D8000DBB2C7F8D4307B685B6C03F00803002B10
:103D900003D1D7F8D430002B4FD0786800F096FAD2
:103DA0007B681B685B6903F04003002B41D07B6894
:103DB0001B681433C7F89C30D7F89C3053E8003F99
:103DC000C7F89830D7F8983023F04003C7F8D030C0
:103DD0007B681B681433D7F8D020C7F8A820C7F831
:103DE000A430D7F8A410D7F8A82041E80023C7F8DA
:103DF000A030D7F8A030002BD9D17B68DB6B002B2B
:103E000013D07B68DB6B7E4A5A637B68DB6B18469A
:103E1000FEF7EAF80346002B16D07B68DB6B5B6B82
:103E20007A68D26B104698470EE0786800F093F9F4
:103E30000AE0786800F08FF906E0786800F08BF906
:103E40007B6800225A6475E100BF73E17B681B6BDD
:103E5000012B40F04F81D7F8E43003F01003002B22
:103E600000F04881D7F8E03003F01003002B00F099
:103E700041810023BB607B681B681B68BB607B685B
:103E80001B685B68BB60BB687B681B685B6903F091
:103E90004003002B00F0B6807B68DB6B1B685B681F
:103EA000A7F8BE30B7F8BE30002B00F045817B6824
:103EB0009B8DB7F8BE209A4280F03E817B68B7F8B0
:103EC000BE20DA857B68DB6B9B69202B00F0888045
:103ED0007B681B680C33C7F88830D7F8883053E804
:103EE000003FC7F88430D7F8843023F48073C7F8D4
:103EF000B8307B681B680C33D7F8B820C7F894201B
:103F0000C7F89030D7F89010D7F8942041E80023F4
:103F1000C7F88C30D7F88C30002BD9D17B681B6860
:103F200014337B677B6F53E8003F3B673B6F23F0A5
:103F30000103C7F8B4307B681B681433D7F8B4208A
:103F4000C7F88020FB67F96FD7F8802041E800238D
:103F5000BB67BB6F002BE1D17B681B6814333B66EA
:103F60003B6E53E8003FFB65FB6D23F04003C7F851
:103F7000B0307B681B681433D7F8B020FA66BB6694
:103F8000B96EFA6E41E800237B667B6E002BE3D1AD
:103F90007B68202283F842207B6800221A637B68BA
:103FA0001B680C33FB64FB6C53E8003FBB64BB6CC9
:103FB00023F01003C7F8AC307B681B680C33D7F8CC
:103FC000AC20BA657B65796DBA6D41E800233B652D
:103FD0003B6D002BE3D17B68DB6B1846FDF7C9FF17
:103FE0007B6802225A637B689A8D7B68DB8D9BB26B
:103FF000D31A9BB21946786800F0B6F89CE000BF6F
:10400000914300087B689A8D7B68DB8D9BB2D31A45
:10401000A7F8CE307B68DB8D9BB2002B00F08E8042
:10402000B7F8CE30002B00F089807B681B680C331A
:10403000BB63BB6B53E8003F7B637B6B23F49073E4
:10404000C7F8C8307B681B680C33D7F8C8207A647F
:104050003B64396C7A6C41E80023FB63FB6B002BFB
:10406000E3D17B681B6814337B627B6A53E8003FB3
:104070003B623B6A23F00103C7F8C4307B681B68CE
:104080001433D7F8C4203A63FB62F96A3A6B41E80B
:104090000023BB62BB6A002BE3D17B68202283F83C
:1040A00042207B6800221A637B681B680C333B61EB
:1040B0003B6953E8003FFB60FB6823F01003C7F83F
:1040C000C0307B681B680C33D7F8C020FA61BB6135
:1040D000B969FA6941E800237B617B69002BE3D170
:1040E0007B6802225A63B7F8CE301946786800F030
:1040F0003BF823E0D7F8E43003F08003002B09D02D
:10410000D7F8E03003F08003002B03D0786800F08C
:1041100053F914E0D7F8E43003F04003002B0ED03D
:10412000D7F8E03003F04003002B08D0786800F0A7
:1041300092F904E000BF02E000BF00E000BFE837F2
:10414000BD4680BD80B483B000AF786000BF0C373F
:10415000BD4680BC704780B483B000AF786000BFBC
:104160000C37BD4680BC704780B483B000AF786028
:104170000B467B8000BF0C37BD4680BC704780B5C6
:1041800090B000AFF860B9603B601346FB7150E03F
:10419000BB6CB3F1FF3F4CD0BB6C002B07D0FDF7DD
:1041A000ADFD02463B68D31ABA6C9A4241D2FB6815
:1041B0001B680C33BB62BB6A53E8003F7B627B6ABF
:1041C00023F4D073FB63FB681B680C33FA6B7A63D0
:1041D0003B63396B7A6B41E80023FB62FB6A002B7F
:1041E000E5D1FB681B6814337B617B6953E8003FB2
:1041F0003B613B6923F00103BB63FB681B6814331D
:10420000BA6B3A62FB61F9693A6A41E80023BB6123
:10421000BB69002BE5D1FB68202283F84120FB68B5
:10422000202283F84220FB68002283F840200323E9
:104230000FE0FB681B681A68BB681340BA689A42B3
:104240000CBF01230023DBB21A46FB799A429FD0B0
:10425000002318464037BD4680BD80B485B000AF0E
:10426000F860B9601346FB80FB68BA689A62FB6825
:10427000FA889A85FB68FA88DA85FB6800225A6416
:10428000FB68222283F84220FB681B69002B07D0C1
:10429000FB681B68DA68FB681B6842F48072DA60AE
:1042A000FB681B685A69FB681B6842F001025A618F
:1042B000FB681B68DA68FB681B6842F02002DA6062
:1042C000002318461437BD4680BC704780B495B0B3
:1042D00000AF78607B681B680C337B637B6B53E8B3
:1042E000003F3B633B6B23F49073FB647B681B686C
:1042F0000C33FA6C3A64FB63F96B3A6C41E80023C7
:10430000BB63BB6B002BE5D17B681B6814333B623E
:104310003B6A53E8003FFB61FB6923F00103BB6488
:104320007B681B681433BA6CFA62BB62B96AFA6ABA
:1043300041E800237B627B6A002BE5D17B681B6B25
:10434000012B19D17B681B680C33FB60FB6853E8B9
:10435000003FBB60BB6823F010037B647B681B6875
:104360000C337A6CBA617B617969BA6941E80023E0
:104370003B613B69002BE5D17B68202283F842201A
:104380007B6800221A6300BF5437BD4680BC70476B
:1043900080B584B000AF78607B685B6AFB60FB68C7
:1043A0000022DA85FB680022DA84F868FFF7D3FE82
:1043B00000BF1037BD4680BD80B485B000AF7860C7
:1043C0007B6893F84130DBB2212B3ED17B689B6840
:1043D000B3F5805F14D17B681B69002B10D17B681B
:1043E0001B6AFB60FB681B881A467B681B68C2F36C
:1043F00008025A607B681B6A9A1C7B681A6208E094
:104400007B681B6A591C7A6811621A787B681B6882
:104410005A607B68DB8C9BB2013B9BB27A68194681
:10442000D184002B0FD17B681B68DA687B681B681E
:1044300022F08002DA607B681B68DA687B681B68A0
:1044400042F04002DA60002300E0022318461437ED
:10445000BD4680BC704780B582B000AF78607B6895
:104460001B68DA687B681B6822F04002DA607B68B0
:10447000202283F841207868FFF764FE0023184665
:104480000837BD4680BD80B58CB000AF78607B68D2
:1044900093F84230DBB2222B40F0AE807B689B6801
:1044A000B3F5805F17D17B681B69002B13D1002304
:1044B000FB627B689B6ABB627B681B685B689BB224
:1044C000C3F308039AB2BB6A1A807B689B6A9A1C82
:1044D0007B689A6226E07B689B6AFB620023BB6272
:1044E0007B689B68B3F5805F07D07B689B68002B77
:1044F0000AD17B681B69002B06D17B681B685B684F
:10450000DAB2FB6A1A7008E07B681B685B68DBB292
:1045100003F07F03DAB2FB6A1A707B689B6A5A1C4D
:104520007B689A627B68DB8D9BB2013B9BB27A68A9
:104530001946D185002B5DD17B681B68DA687B68E2
:104540001B6822F02002DA607B681B68DA687B68EF
:104550001B6822F48072DA607B681B685A697B688A
:104560001B6822F001025A617B68202283F84220F6
:104570007B6800225A637B681B6B012B35D17B68FB
:1045800000221A637B681B680C337B617B6953E8EC
:10459000003F3B613B6923F010037B627B681B6833
:1045A0000C337A6A3A62FB61F9693A6A41E800239E
:1045B000BB61BB69002BE5D17B681B681B6803F0FE
:1045C0001003102B0AD10023FB607B681B681B685B
:1045D000FB607B681B685B68FB60FB687B689B8D8E
:1045E00019467868FFF7C0FD02E07868FCF7A2FB87
:1045F000002302E0002300E0022318463037BD46C6
:1046000080BD000080B584B000AF78607B681B6817
:104610001B6923F440517B68DA687B681B680A4396
:104620001A617B689A687B681B691A437B685B69BF
:104630001343BB607B681B68DB6823F4B05323F033
:104640000C037A681268B9680B43D3607B681B68F7
:104650005B6923F440717B689A697B681B680A4335
:104660005A617B681B682C4A934203D1FEF7AEFA6D
:10467000F86002E0FEF796FAF860FA6813469B00CD
:1046800013449A001A447B685B689B00B2FBF3F307
:10469000224AA2FB03235B091901FA6813469B0017
:1046A00013449A001A447B685B689B00B2FBF3F2E8
:1046B0001A4BA3FB02035B09642000FB03F3D31A2C
:1046C0001B013233154AA2FB03235B0903F0F003FD
:1046D0001944FA6813469B0013449A001A447B68F5
:1046E0005B689B00B2FBF3F20C4BA3FB02035B097C
:1046F000642000FB03F3D31A1B013233074AA2FBE9
:1047000003235B0903F00F027B681B680A449A606D
:1047100000BF1037BD4680BD003801401F85EB51FA
:104720000A22002100F07EB8012B2DE9F0478646D1
:10473000904601D0242B06D900F0D2F8162303604E
:104740000020BDE8F0870D4635482A4615F8014B94
:10475000065D16F00806F8D12D2C2ED101262C78F6
:10476000951C002B57D0102B09D1302C07D12A785B
:1047700002F0DF02582A49D110236C78023500225A
:1047800006F1004C0CF1FF3CBCFBF3F9104603FBB7
:1047900019CAA4F13007092F14D83C46A34220DDE2
:1047A000571C07D0814519D301D1A24516DB012240
:1047B00000FB034015F8014BEBE72B2C04BF2C78D2
:1047C000951CCEE7A4F14107192F01D8373CE5E746
:1047D000A4F16107192F04D8573CDFE74FF0FF32EF
:1047E000E8E7531C08D122236046CEF80030B8F128
:1047F000000FA6D0691E06E006B14042B8F1000FD6
:104800009FD0002AF6D1C8F800109AE73024002B78
:10481000B5D10823B3E7302CA9D00A23AFE700BFF6
:104820008B52000813460A46014602480068FFF70B
:104830007BBF00BF580000200EB46FF0004100B5F0
:104840009CB01DAB0290069007910491084809495D
:1048500053F8042B0591006802A9019300F0BAF9FE
:104860000022029B1A701CB05DF804EB03B0704785
:10487000580000200802FFFF03460244934200D183
:10488000704703F8011BF9E7F0B508B9106888B163
:1048900004460F46204614F8015B17F8016B1EB959
:1048A00065B92846156005E0B542F6D1002BF0D178
:1048B00014600370F0BD1C460CE015B90E4614F8E8
:1048C000013B16F8015BAB42F7D1002BF3D000237C
:1048D00004F8013C1460EDE70123FFF7D5BF0000A9
:1048E000014B1868704700BF5800002070B50026C3
:1048F0000C4D0D4C641BA410A64209D100F07AFCAB
:1049000000260A4D0A4C641BA410A64205D170BDB6
:1049100055F8043B98470136EEE755F8043B9847B5
:104920000136F2E7C0530008C0530008C053000826
:10493000C45300087047704738B50546002940D079
:1049400051F8043C0C1F002BB8BFE41800F0DCF851
:104950001C4A136833B9636014602846BDE83840C8
:1049600000F0D8B8A34208D9206821188B4201BFB3
:1049700019685B6809182160EDE71A465B680BB19E
:10498000A342FAD911685018A0420BD12068014403
:10499000501883421160E0D118685B6808441060C9
:1049A0005360DAE702D90C232B60D6E72068211880
:1049B0008B4201BF19685B6809182160636054600D
:1049C000CBE738BD8803002070B50E4E0C46316829
:1049D000054611B900F0AAFB30602146284600F0D8
:1049E000A5FB431C0AD0C41C24F00304A04207D03A
:1049F000211A284600F09AFB013001D14FF0FF3414
:104A0000204670BD8C0300202DE9F843CD1C25F015
:104A1000030508350C2D38BF0C25002D074601DB9A
:104A2000A94205D90C2300263B603046BDE8F88337
:104A3000DFF8D08000F068F8D8F800301C465CBB86
:104A400029463846FFF7C0FF431C044655D1D8F825
:104A500000402646002E45D1002C48D02368314620
:104A6000384604EB030900F061FB81453FD1216822
:104A700038466D1A2946FFF7A7FF013037D0236863
:104A80002B442360D8F80030002B38D05A68A2425B
:104A90002BD100225A600FE02268521B1FD40B2A30
:104AA00017D96119A342256018BF5960636808BF10
:104AB000C8F8001062514B60384604F10B0600F054
:104AC00029F826F00706231DF21AAED09B1BA3502F
:104AD000ABE7A3426268DDD1C8F80020ECE72346CB
:104AE0006468ACE734467668B4E71346CCE70C2339
:104AF00038463B6000F00EF897E72560DCE75B6026
:104B0000FFDE00BF880300200148FFF713BF00BF8E
:104B1000840300200148FFF70EBF00BF840300207C
:104B20002DE9F0471F468E688246BE420C469046ED
:104B30000B682CD88A8912F4906F26D065690969B0
:104B400005EB4505A3EB010905EBD5757B1C4B4433
:104B50006D109D4238BF1D46530527D52946FFF7E6
:104B600053FF064660B34A46216900F0FDFAA38967
:104B700023F4906343F08003A38126614E442660B2
:104B80003E466561A5EB0905A560BE4200D93E46DB
:104B900032464146206800F0AFFA0020A3689B1B14
:104BA000A360236833442360BDE8F0872A4600F001
:104BB000E9FA06460028E0D150462169FFF7BCFE1D
:104BC0000C23CAF80030A3894FF0FF3043F04003B4
:104BD000A381E9E72DE9F04F98468B8907461B062C
:104BE0000D4614469DB00ED50B6963B94021FFF701
:104BF0000BFF2860286120B90C233B604FF0FF3089
:104C0000D0E040236B610023099320238DF82930E5
:104C100030234FF00109CDF80C80DFF8A0818DF82A
:104C20002A3023469A4613F8012B0AB1252AF9D1D6
:104C3000BAEB040B0BD05B46224629463846FFF7F9
:104C40006FFF013000F0A980099A5A4409929AF83E
:104C50000030002B00F0A18000234FF0FF32CDE99F
:104C600005230AF1010A049307938DF853301A9330
:104C70005446052214F8011B504800F067FA049AC4
:104C8000D8B9D00644BF20238DF85330110744BF54
:104C90002B238DF853309AF800302A2B15D0544628
:104CA00000204FF00A0C079A214611F8013B303BD7
:104CB000092B4DD9B0B1079214E0A0EB080309FA13
:104CC00003F31343A2460493D2E7039B191D1B6809
:104CD0000391002BBBBF5B4242F002020793079394
:104CE000B8BF049223782E2B0CD163782A2B34D1B1
:104CF000039B02341A1D1B680392002BB8BF4FF0B0
:104D0000FF330593DFF8B8A003225046217800F066
:104D10001DFA38B14022049BA0EB0A0082401343E5
:104D20000134049314F8011B062226488DF828103C
:104D300000F00CFA002838D0234B1BBB039B073331
:104D400023F0070308330393099B3344099368E76F
:104D50000C4601200CFB0232A6E700234FF00A0CA0
:104D6000194601340593204610F8012B303A092AE0
:104D700003D9002BC6D00591C4E7044601230CFBE0
:104D80000121F0E703AB00932A4638460F4B04A9F4
:104D9000AFF30080421C0646D6D1AB895B063FF5D7
:104DA0002DAF09981DB0BDE8F08F03AB00932A46E4
:104DB0003846064B04A900F07DF8EBE78B5300085A
:104DC000915300089553000800000000214B000893
:104DD0002DE9F047164699468A680B6907469342C3
:104DE000B8BF1346336091F843200C46DDF82080AD
:104DF0000AB1013333602368990642BF3368023336
:104E00003360256815F0060506D104F1190AE36838
:104E100032689B1AAB422BDC94F84320131E2268A5
:104E200018BF0123920630D44946384604F14302A4
:104E3000C047013023D02368226903F00603042B06
:104E400014BF002533684FF0000608BFE56804F181
:104E50001A0408BFED1A54F8123C08BF25EAE5759C
:104E60009342C4BF9B1AED18B5421AD1002008E046
:104E70000123524649463846C047013003D14FF01E
:104E8000FF30BDE8F0870135C1E73020E11881F837
:104E900043005A1C94F845102244023382F8431010
:104EA000C2E70123224649463846C0470130E6D0D2
:104EB0000136D9E72DE9FF470F7E9146782F8046CE
:104EC0000C469A460C9D01F1430207D8622F0AD87E
:104ED000002F00F0D580582F00F0C18004F142056A
:104EE00084F842703AE0A7F16303152BF6D801A1CC
:104EF00051F823F04D4F0008614F0008DD4E0008C7
:104F0000DD4E0008DD4E0008DD4E0008614F000850
:104F1000DD4E0008DD4E0008DD4E0008DD4E0008C5
:104F2000675000088D4F000821500008DD4E000832
:104F3000DD4E000889500008DD4E00088D4F000846
:104F4000DD4E0008DD4E0008295000082B681A1DB0
:104F50001B682A6004F1420584F842300123A0E076
:104F600020682B68070603F10401296001D51E683B
:104F700003E04606FBD5B3F90060002E03DA2D23CB
:104F8000764284F843300A23594812E02B6820689F
:104F9000191D2960050601D51E6802E04106FBD5F2
:104FA0001E886F2F0CBF08230A235148002184F864
:104FB00043106568002DA8BF2168A560A4BF21F03B
:104FC000040121600EB9002D4BD01546B6FBF3F15C
:104FD00003FB1167C75D05F8017D3746BB420E46EE
:104FE000F4D9082B0BD12368DE0708D52369616843
:104FF0009942DEBF302305F8013C05F1FF35521B15
:1050000022614B4621464046CDF800A003AAFFF797
:10501000DFFE01304AD14FF0FF3004B0BDE8F08729
:10502000236843F0200323607827324884F84570D2
:10503000236829681F0651F8046B02D45F0648BF35
:10504000B6B2DF0748BF43F02003296048BF2360A2
:105050001EB9236823F0200323601023A6E7244809
:10506000E4E71546BDE72B682668181D61692860CE
:1050700035061B6801D5196002E07006FBD5198062
:10508000002315462361BCE72B6800211A1D2A6006
:105090001D686268284600F059F808B1401B60603E
:1050A00063682361002384F84330AAE72A4649460F
:1050B00040462369D0470130ADD023689B0713D405
:1050C000E068039B9842B8BF1846A6E70123324622
:1050D00049464046D04701309DD00135E3680399E9
:1050E0005B1AAB42F2DCEBE7002504F11906F5E7A9
:1050F0009C530008AD530008884210B501EB020430
:1051000002D98442234607D8431EA14208D011F891
:10511000012B03F8012FF8E7014602448A4200D12F
:1051200010BD13F8014D02F8014DF7E738B5002323
:10513000054D044608462B60FCF726FD431C02D1B2
:105140002B6803B1236038BD80030020034610B5EF
:10515000C9B202449342184601D1002003E004780A
:1051600001338C42F6D110BD0A44914200F1FF3365
:1051700000D1704710B511F8014B914203F8014F6F
:10518000F9D110BD2DE9F041804614460E4621B9F3
:105190001146BDE8F041FFF737BC2AB9FFF7CCFB59
:1051A00025462846BDE8F08100F01BF884420746FA
:1051B00002D8B4EB500F12D821464046FFF724FC2A
:1051C00005460028EDD0BC422246314628BF3A466B
:1051D000FFF7CAFF31464046FFF7AEFBE1E7354631
:1051E000DFE751F8043C181F002BBCBF0B58C01858
:1051F00070470000F8B500BFF8BC08BC9E46704779
:0C520000F8B500BFF8BC08BC9E46704723
:10520C004F4B0A004552524F520A00003A00000020
:10521C00504944275320534554210A004552524FBC
:10522C0052210A004C656674205049443A2025648A
:10523C002025642025642025640A000052696768D3
:10524C0074205049443A202564202564202564208C
:10525C0025640A00000000000000000001020304A5
:10526C0006070809000000000102030402030405FC
:10527C00060708090A0B0C0D0E0F10100102002076
:10528C0020202020202020202828282828202020EA
:10529C00202020202020202020202020202020889A
:1052AC0010101010101010101010101010101004FE
:1052BC00040404040404040404101010101010104E
:1052CC004141414141410101010101010101010142
:1052DC000101010101010101010110101010101058
:1052EC004242424242420202020202020202020212
:1052FC00020202020202020202021010101020002E
:10530C000000000000000000000000000000000091
:10531C000000000000000000000000000000000081
:10532C000000000000000000000000000000000071
:10533C000000000000000000000000000000000061
:10534C000000000000000000000000000000000051
:10535C000000000000000000000000000000000041
:10536C000000000000000000000000000000000031
:10537C0000000000000000000000000000000023FE
:10538C002D302B2000686C4C006566674546470045
:10539C00303132333435363738394142434445465F
:1053AC0000303132333435363738396162636465F5
:0453BC006600000087
:0453C00035010008AB
:0453C40011010008CB
:1053C8000024F400100000000100000000000000AC
:1053D80048020020B002002018030020000000004E
:1053E80000000000000000000000000000000000B5
:1053F80000000000000000000000000000000000A5
:105408000000000000000000000000000000000094
:0C54180000000000000000000C0000205C
:0400000508001C01D2
:00000001FF
